:03000000020003F8
:10005C0002005F12008780FEAA82AB83EA4B600429
:10006C007C0180027C00EC60117C6EEC24FF500360
:10007C001C80F81ABAFF011B80E22275A0FF9001C8
:0F008C00F312006475A0009001F312006480EC81
:06003200E478FFF6D8FDA2
:100010007900E94400601B7A0090009F780075A089
:1000200000E493F2A308B8000205A0D9F4DAF2754F
:02003000A0FF2F
:100038007800E84400600A790075A000E4F309D864
:10004800FC7800E84400600C7900900000E4F0A31C
:04005800D8FCD9FAFD
:0D00030075810712009BE582600302005F1B
:04009B007582002248
:00000001FF
