:03000000020003F8
:03005C0002005F40
:05005F001200BB80FE51
:0C006400AA82AB83EA4B6016748055083A
:0A007000FA235401FAE5082508F50B
:05007A0008EA420885C0
:03007F00088222D2
:0A00820074015508FA035480FAE5F2
:07008C0008C313F508EA4266
:0500930008850882222F
:04009800AA82AB830A
:08009C00EA4B60047C018002C4
:0200A4007C00DE
:0500A600EC60117C6E0E
:0800AB00EC24FF50031C80F857
:0500B3001ABAFF011B59
:0200B80080E2E4
:0100BA002223
:0200BB007AAA1F
:0C00BD008A08900001120064AA828A9058
:0C00C9009001F3C002120098D00280E801
:06003200E478FFF6D8FDA2
:080010007900E94400601B7A4D
:05001800009000D97802
:03001D000075A0CB
:0A00200000E493F2A308B800020503
:08002A00A0D9F4DAF275A0FF81
:080038007800E84400600A7939
:030040000075A0A8
:0600430000E4F309D8FC03
:080049007800E84400600C7926
:0B00510000900000E4F0A3D8FCD9FAF6
:03000300758108FC
:0A0006001200D5E582600302005FDE
:0400D500758200220E
:00000001FF
