:03000000020003F8
:03005C0002005F40
:05005F0012006480FEA8
:040064007A007B00A3
:06006800BB0A037B000A45
:05006E00BA06027A0051
:020073007C50BF
:0C007500EC24FF50168B088A82C002C0E9
:0E00810003C0041200B6D004D003D0021C80CD
:01008F00E58B
:030090000B80D50D
:04009300AA82AB830F
:08009700EA4B60047C018002C9
:02009F007C00E3
:0500A100EC60117C6E13
:0800A600EC24FF50031C80F85C
:0500AE001ABAFF011B5E
:0200B30080E2E9
:0100B5002228
:0C00B600AA829000FEE493F590E5082477
:0A00C20006F582E43401F583E493AF
:0E00CC00F580900002C002120093D0027580F1
:0C00DA00009000FFE493F590EA2406F586
:0B00E60082E43401F583E493F5809080
:0900F10000021200937580002248
:0800FE00FEFDFBF7EFDFBF7F01
:0E0106003F065B4F666D7D077F6F777C395E2D
:03011400797100FE
:06003200E478FFF6D8FDA2
:080010007900E94400601B7A4D
:050018000090011778C3
:03001D000075A0CB
:0A00200000E493F2A308B800020503
:08002A00A0D9F4DAF275A0FF81
:080038007800E84400600A7939
:030040000075A0A8
:0600430000E4F309D8FC03
:080049007800E84400600C7926
:0B00510000900000E4F0A3D8FCD9FAF6
:03000300758108FC
:0A0006001200FAE582600302005FB9
:0400FA0075820022E9
:00000001FF
