:03000000020003F8
:03005C0002005F40
:05005F0012006480FEA8
:020064007A0020
:03006600BA0800D5
:0A00690050F9EA24C6F582E43400E1
:0C007300F583E493F580EA24BEF582E4F6
:0C007F003400F583E493F590900002C07B
:0C008B0002120097D0027590000A80CF8E
:04009700AA82AB830B
:08009B00EA4B60047C018002C5
:0200A3007C00DF
:0500A500EC60117C6E0F
:0800AA00EC24FF50031C80F858
:0500B2001ABAFF011B5A
:0200B70080E2E5
:0100B9002224
:0800BE00FEFDFBF7EFDFBF7F41
:0E00C6003F065B4F666D7D077F6F777C395E6E
:0300D4007971003F
:06003200E478FFF6D8FDA2
:080010007900E94400601B7A4D
:05001800009000D77804
:03001D000075A0CB
:0A00200000E493F2A308B800020503
:08002A00A0D9F4DAF275A0FF81
:080038007800E84400600A7939
:030040000075A0A8
:0600430000E4F309D8FC03
:080049007800E84400600C7926
:0B00510000900000E4F0A3D8FCD9FAF6
:03000300758107FD
:0A0006001200BAE582600302005FF9
:0400BA007582002229
:00000001FF
