:0400000002000E32BA
:03000B000200FCF4
:10006700750800750900750A00750B000200761205
:10007700007B80FE758901758C4C758AD0D2AFD212
:10008700A9D28C85090C8508821200B880F5AA824E
:10009700AB83EA4B60047C0180027C00EC60117C3E
:1000A7006EEC24FF50031C80F81ABAFF011B80E294
:1000B70022AA8290013BE493F590E50C2443F58254
:1000C700E43401F583E493F580900002C002120046
:1000D70095D00275800090013CE493F590EA2443A3
:1000E700F582E43401F583E493F580900002120071
:1000F7009575800022C0E0C0F0C0D075D000758C27
:100107004C758AD0050BE50BB4141E750B00050A58
:10011700E50AB43C03750A0075F00AE50A84F50898
:1001270075F00AE50A8485F009D0D0D0F0D0E03226
:10013B00FEFDFBF7EFDFBF7F3F065B4F666D7D0775
:09014B007F6F777C395E79710049
:06003D00E478FFF6D8FD97
:10001B007900E94400601B7A00900154780075A0C8
:10002B0000E493F2A308B8000205A0D9F4DAF27544
:02003B00A0FF24
:100043007800E84400600A790075A000E4F309D859
:10005300FC7800E84400600C7900900000E4F0A311
:04006300D8FCD9FAF2
:0D000E0075810C120137E582600302007657
:0401370075820022AB
:00000001FF
